:040000006F00102E4F
:1000040000000000000000000606000008060000D2
:1000140000000000DE0A00000000000000000000F4
:10002400DE0A0000DE0A00000000000000000000FC
:10003400DE0A000000000000DE0A000000000000EC
:10004400DE0A0000DE0A0000DE0A0000DE0A00000C
:10005400DE0A0000DE0A0000DE0A0000DE0A0000FC
:10006400DE0A0000DE0A0000DE0A0000DE0A0000EC
:10007400DE0A0000DE0A0000DE0A0000DE0A0000DC
:10008400DE0A0000DE0A0000DE0A0000DE0A0000CC
:10009400DE0A0000DE0A0000DE0A0000DE0A0000BC
:1000A400DE0A0000DE0A0000DE0A0000DE0A0000AC
:1000B400DE0A0000DE0A0000DE0A0000DE0A00009C
:1000C400DE0A0000DE0A0000DE0A0000DE0A00008C
:1000D400DE0A0000DE0A0000DE0A0000DE0A00007C
:1000E400DE0A0000DE0A0000DE0A0000DE0A00006C
:0C00F400DE0A0000DE0A0000DE0A000048
:10010000397101436EC619A0397141536AC866CA74
:1001100062CC5ECE19A0397101535AD056D252D456
:100120004ED64AD826DA22DC06DE330161408282CE
:1001300041114AC026C222C406C68282B24D410184
:10014000024D924C224CB24B4101024B924A224A40
:10015000B2494101024992442244B24041018280A5
:10016000371702401C4F93E747001CCF8280371798
:1001700002401C4F93E787001CCF82803717024054
:100180001C4F93E707021CCF8280B707002093879C
:10019000070011C188C3884382809377050F4147C8
:1001A0006395E70E137885001375F50F9376750048
:1001B0008A06138726008D473396E70093F83500AB
:1001C000B397D70013F385001346F6FF3397E80083
:1001D00093C7F7FF63180304B705002003A50500C4
:1001E0003315D50063110802B715014083A60580B9
:1001F000F58FC98F23A0F58083A705807D8E518F51
:1002000023A0E5808280B716014083A54680ED8F4C
:10021000C98F23A2F68083A746807D8E518F23A2AB
:10022000E6808280B71601406314080403A80680A4
:10023000B377F80023A0F68083A706807D8E518FC8
:1002400023A0E68089476395F82E3717014083265F
:10025000C7803D898547B397A700898593C7F7FF76
:100260008589F58F3395A5005D8D2326A780828033
:1002700003A84680B377F80023A2F68083A74680C0
:100280007D8E518F23A2E68075BF13070002639510
:10029000E70E137885001375F50F937675008A06BF
:1002A000138726008D473396E70093F83500B39700
:1002B000D70013F385001346F6FF3397E80093C782
:1002C000F7FF63180304B705002003A505003315E5
:1002D000D50063110802B715014083A605C0F58F4C
:1002E000C98F23A0F5C083A705C07D8E518F23A0A1
:1002F000E5C08280B716014083A546C0ED8FC98F47
:1003000023A2F6C083A746C07D8E518F23A2E6C0EC
:100310008280B71601406314080403A806C0B377AF
:10032000F80023A0F6C083A706C07D8E518F23A0BE
:10033000E6C08947639EF81E371701408326C7C071
:100340003D898547B397A700898593C7F7FF8589BE
:10035000F58F3395A5005D8D2326A7C0828003A865
:1003600046C0B377F80023A2F6C083A746C07D8EAF
:10037000518F23A2E6C075BF130700036396E71AE7
:10038000137885001375F50F137675000A061307A9
:1003900026008D47B396E70093F83500B397C70062
:1003A00013F3850093C6F6FF3397E80093C7F7FF72
:1003B000631E0302B705002003A50500B715014021
:1003C0003315C500631B08009041F18FC98F9CC194
:1003D0009C41FD8E558F98C18280D041F18FC98F8D
:1003E000DCC1DC41FD8E558FD8C1828037160140BB
:1003F000631F080203280600B377F8001CC21C42E2
:10040000FD8E558F18C289476394F8123717014043
:1004100054473D898547B397A700898593C7F7FF60
:100420008589F58F3395A5005D8D48C782800328A7
:100430004600B377F8005CC25C42FD8E558F58C20F
:10044000D9B7137885001375F50F937675008A0672
:10045000138726008D473396E70093F83500B3974E
:10046000D70013F385001346F6FF3397E80093C7D0
:10047000F7FF63180304B705002003A50500331533
:10048000D50063110802B715014083A60540F58F1A
:10049000C98F23A0F54083A705407D8E518F23A0EF
:1004A000E5408280B716014083A54640ED8FC98F95
:1004B00023A2F64083A746407D8E518F23A2E640BB
:1004C0008280B71601406314080403A80640B3777E
:1004D000F80023A0F64083A706407D8E518F23A00D
:1004E000E64089476396F804371701408326C740E2
:1004F0003D898547B397A700898593C7F7FF85890D
:10050000F58F3395A5005D8D2326A740828003A833
:100510004640B377F80023A2F64083A746407D8E7D
:10052000518F23A2E64075BF13070004E38BE7F069
:1005300082801377050FC147631FF700B71701408B
:1005400003A787803D898547B397A700F98FB33705
:10055000F0003E858280930700026317F700B7170B
:10056000014003A787C0F9BF930700036316F70094
:10057000B71701409847F9B7930600049307F00FA7
:10058000E319D7FCB717014003A7874065BF9377EE
:10059000050F41476393E70285473D893395A700DF
:1005A000B717014093870780D84789E51345F5FFC2
:1005B000798D11A0598DC8C7828013070002639BF3
:1005C000E70085473D893395A700B717014093871A
:1005D00007C0D9BF130700036392E70285473D892F
:1005E0003395A700B7170140C1B785473D893395BB
:1005F000A700B7170140938707407DB71307000492
:10060000E385E7FE828001A0B707EFBE37E700E091
:10061000938707083CC701A0B7170240D843B70625
:100620002000558FD8C3D843B7061000558FD8C3C4
:10063000D843B7060800558FD8C3D843B70604007F
:10064000558FD8C3B746024003A70680136707013A
:1006500023A0E6809843B7060001558F98C39843BE
:1006600093166700E3DD06FED84313672700D8C35F
:100670008280EFF27FA94D37E534D53C013637173C
:1006800002401C4FA1660D4593E717001CCF3707AA
:1006900001405C43054AD58F5CC3C53C814541455B
:1006A000ED3C81454545D53C81454945FD34814575
:1006B0004D45E53481455145CD3481455545F13CA5
:1006C00081455945D93C81455D45C13C81456145E0
:1006D000E93481456545D134814569457D3C814595
:1006E0006D45653C814571454D3C814513050002D2
:1006F0006D348145130510024D34A54513053002B4
:10070000693CA54513054002493CA5451305500227
:100710006934A545130560024934A54513057002E7
:10072000AD3CA545130580028D3CA5457D45B534FE
:1007300013053002FD3BAA8913054002DD3BAA8A5E
:1007400013055002FD332A8913056002DD33AA84A4
:1007500013057002F93B2A8413058002D93B2A8BCA
:100760007D45C13BB3679900C18FB367FB0093F729
:10077000F70FAA8B6395071463934A156391491584
:10078000631F451385451305100211358145130577
:100790000002F53BB3E72A01C18FB367FB0093F773
:1007A000F70F639507146393441563919914639F3E
:1007B0003B1385455D45E13B81455945C93BB367E1
:1007C000640193F7F70F6398071463964415631455
:1007D000991463922A1563905915639E3B138545BE
:1007E00055457533814551455D33B3E75901C58F93
:1007F000B367FB0093F7F70F639407146312441574
:1008000063108914639E2B138545714549338145D7
:100810004D45B53BB3E7640193F7F70F63980714B1
:10082000631644156314891463922A15639059154D
:10083000639E3B1385456D45993B81454945813B09
:10084000B3E72901B367FB0093F7F70F639607142B
:10085000631444156392841463909A14639E5B132B
:10086000854569452D33814545451533B3E76A0113
:1008700093F7F70F63980714631644156394841471
:100880006312991463902915639E3B138545654552
:10089000FD39B3E9590133693901B3E42401458CC9
:1008A00033648B00814541451374F40FCD316311DE
:1008B00004148545639E4B136145D13995BD81452F
:1008C00013051002E931B3E79900C18FB367FB004C
:1008D00093F7F70FE39C07EAE31A49EBE3982AEB57
:1008E000E3965BEB854513050002553181455D4577
:1008F0007939B3E75901C18FB367FB0093F7F70F5D
:10090000E39C07EAE39A44EBE31899EAE3962BEBBE
:1009100085455945AD39814555459539B3E7290197
:10092000C58FB367FB0093F7F70FE39D07EAE31B5F
:1009300044EBE3998AEAE3975BEB854551458139BE
:1009400081457145A931B3E79A00B367FB0093F77E
:10095000F70FE39E07EAE31C44EBE31A89EAE39806
:1009600029EBE3963BEB85454D45153181456D45BA
:100970003939B3E75901B367F900B367FB0093F75F
:10098000F70FE39C07EAE31A44EBE39884EAE39663
:100990009BEA85454945E53E81456945CD3EB367BE
:1009A000690193F7F70FE39007ECE31E44EBE39C38
:1009B00084EAE39A9AEAE39859EBE3963BEB8545A0
:1009C0004545F13681456545D936B3E7690193F769
:1009D000F70FE39007ECE31E44EBE39C44EBE31AD0
:1009E00049EBE3984AEBE3964BEB854541454536A9
:1009F0008145D9B5B71702409843B706FFF04111BA
:100A00001367170098C3D84337060200758FD8C301
:100A10009843B706F7FEFD16758F98C39843B7063F
:100A2000FCFFFD16758F98C3D843B70601FFFD166E
:100A3000758FD8C337079F0098C702C402C6984372
:100A4000C166558F98C3B716024005679C42F18F67
:100A50003EC6A24785073EC4B24781E7A247E39757
:100A6000E7FEB71702409C431397E700635707065A
:100A700085473EC632478547631FF704B7170240D4
:100A8000D843B706C1FFFD16D8C3D843D8C3D8434F
:100A900013670740D8C3D843758FD8C3D843B70668
:100AA0002900558FD8C39843B7060001558F98C3C6
:100AB000984393166700E3DD06FED843B71602405D
:100AC000719BD8C3D84313672700D8C32147DC42A2
:100AD000B18BE39EE7FE4101828002C661BF01A0A7
:100AE00097010020938101D2174100201301815109
:100AF000170500001305850797F5FF1F938585509F
:100B00001386818063FAC5008322050023A0550067
:100B100011059105E3EAC5FE1385818093858180E7
:100B20006377B500232005001105E36DB5FEFD4296
:100B3000739002BC8D427390428093028008739040
:100B4000023097F2FFFF9382224C93E232007390BF
:100B50005230EFF03FEA970200009382C2B17390E7
:080B6000123473002030000084
:080B6800020000000000000083
:00000001FF
