:040000006F00103647
:1000040000000000000000000606000008060000D2
:10001400000000005E0B0000000000000000000073
:100024005E0B00005E0B00000000000000000000FA
:100034005E0B0000000000005E0B000000000000EA
:100044005E0B00005E0B00005E0B00005E0B000008
:100054005E0B00005E0B00005E0B00005E0B0000F8
:100064005E0B00005E0B00005E0B00005E0B0000E8
:100074005E0B00005E0B00005E0B00005E0B0000D8
:100084005E0B00005E0B00005E0B00005E0B0000C8
:100094005E0B00005E0B00005E0B00005E0B0000B8
:1000A4005E0B00005E0B00005E0B00005E0B0000A8
:1000B4005E0B00005E0B00005E0B00005E0B000098
:1000C4005E0B00005E0B00005E0B00005E0B000088
:1000D4005E0B00005E0B00005E0B00005E0B000078
:1000E4005E0B00005E0B00005E0B00005E0B000068
:0C00F4005E0B00005E0B00005E0B0000C5
:10010000397101436EC619A0397141536AC866CA74
:1001100062CC5ECE19A0397101535AD056D252D456
:100120004ED64AD826DA22DC06DE330161408282CE
:1001300041114AC026C222C406C68282B24D410184
:10014000024D924C224CB24B4101024B924A224A40
:10015000B2494101024992442244B24041018280A5
:10016000371702401C4F93E747001CCF8280371798
:1001700002401C4F93E787001CCF82803717024054
:100180001C4F93E707021CCF8280B707002093879C
:10019000070011C188C3884382809377050F4147C8
:1001A0006395E70E137885001375F50F9376750048
:1001B0008A06138726008D473396E70093F83500AB
:1001C000B397D70013F385001346F6FF3397E80083
:1001D00093C7F7FF63180304B705002003A50500C4
:1001E0003315D50063110802B715014083A60580B9
:1001F000F58FC98F23A0F58083A705807D8E518F51
:1002000023A0E5808280B716014083A54680ED8F4C
:10021000C98F23A2F68083A746807D8E518F23A2AB
:10022000E6808280B71601406314080403A80680A4
:10023000B377F80023A0F68083A706807D8E518FC8
:1002400023A0E68089476395F82E3717014083265F
:10025000C7803D898547B397A700898593C7F7FF76
:100260008589F58F3395A5005D8D2326A780828033
:1002700003A84680B377F80023A2F68083A74680C0
:100280007D8E518F23A2E68075BF13070002639510
:10029000E70E137885001375F50F937675008A06BF
:1002A000138726008D473396E70093F83500B39700
:1002B000D70013F385001346F6FF3397E80093C782
:1002C000F7FF63180304B705002003A505003315E5
:1002D000D50063110802B715014083A605C0F58F4C
:1002E000C98F23A0F5C083A705C07D8E518F23A0A1
:1002F000E5C08280B716014083A546C0ED8FC98F47
:1003000023A2F6C083A746C07D8E518F23A2E6C0EC
:100310008280B71601406314080403A806C0B377AF
:10032000F80023A0F6C083A706C07D8E518F23A0BE
:10033000E6C08947639EF81E371701408326C7C071
:100340003D898547B397A700898593C7F7FF8589BE
:10035000F58F3395A5005D8D2326A7C0828003A865
:1003600046C0B377F80023A2F6C083A746C07D8EAF
:10037000518F23A2E6C075BF130700036396E71AE7
:10038000137885001375F50F137675000A061307A9
:1003900026008D47B396E70093F83500B397C70062
:1003A00013F3850093C6F6FF3397E80093C7F7FF72
:1003B000631E0302B705002003A50500B715014021
:1003C0003315C500631B08009041F18FC98F9CC194
:1003D0009C41FD8E558F98C18280D041F18FC98F8D
:1003E000DCC1DC41FD8E558FD8C1828037160140BB
:1003F000631F080203280600B377F8001CC21C42E2
:10040000FD8E558F18C289476394F8123717014043
:1004100054473D898547B397A700898593C7F7FF60
:100420008589F58F3395A5005D8D48C782800328A7
:100430004600B377F8005CC25C42FD8E558F58C20F
:10044000D9B7137885001375F50F937675008A0672
:10045000138726008D473396E70093F83500B3974E
:10046000D70013F385001346F6FF3397E80093C7D0
:10047000F7FF63180304B705002003A50500331533
:10048000D50063110802B715014083A60540F58F1A
:10049000C98F23A0F54083A705407D8E518F23A0EF
:1004A000E5408280B716014083A54640ED8FC98F95
:1004B00023A2F64083A746407D8E518F23A2E640BB
:1004C0008280B71601406314080403A80640B3777E
:1004D000F80023A0F64083A706407D8E518F23A00D
:1004E000E64089476396F804371701408326C740E2
:1004F0003D898547B397A700898593C7F7FF85890D
:10050000F58F3395A5005D8D2326A740828003A833
:100510004640B377F80023A2F64083A746407D8E7D
:10052000518F23A2E64075BF13070004E38BE7F069
:1005300082801377050FC147631FF700B71701408B
:1005400003A787803D898547B397A700F98FB33705
:10055000F0003E858280930700026317F700B7170B
:10056000014003A787C0F9BF930700036316F70094
:10057000B71701409847F9B7930600049307F00FA7
:10058000E319D7FCB717014003A7874065BF9377EE
:10059000050F41476393E70285473D893395A700DF
:1005A000B717014093870780D84789E51345F5FFC2
:1005B000798D11A0598DC8C7828013070002639BF3
:1005C000E70085473D893395A700B717014093871A
:1005D00007C0D9BF130700036392E70285473D892F
:1005E0003395A700B7170140C1B785473D893395BB
:1005F000A700B7170140938707407DB71307000492
:10060000E385E7FE828001A0B707EFBE37E700E091
:10061000938707083CC701A0B7170240D843B70625
:100620002000558FD8C3D843B7061000558FD8C3C4
:10063000D843B7060800558FD8C3D843B70604007F
:10064000558FD8C3B746024003A70680136707013A
:1006500023A0E6809843B7060001558F98C39843BE
:1006600093166700E3DD06FED84313672700D8C35F
:100670008280EFF27FA94D37E534D53C013637173C
:1006800002401C4FA1660D4593E717001CCF3707AA
:1006900001405C430544D58F5CC3C53C8145414561
:1006A000ED3C81454545D53C81454945FD34814575
:1006B0004D45E53481455145CD3481455545F13CA5
:1006C00081455945D93C81455D45C13C81456145E0
:1006D000E93481456545D134814569457D3C814595
:1006E0006D45653C814571454D3C814513050004D0
:1006F0006D348145130510044D3481451305000206
:10070000693C814513051002493CA545130530029B
:100710006934A545130540024934A5451305500227
:10072000AD3CA545130560028D3CA545130570023F
:10073000AD34A545130580028D34A5457D45B13CFA
:1007400013053002FD33AA8413054002DD332A89E4
:1007500013055002F93BAA8A13056002D93BAA8906
:1007600013057002F9332A8A13058002D933336CDA
:1007700059012A8B137CFC0F7D45653BB3EC890145
:1007800093FCFC0FB3676A01B3E7FC0093F7F70F24
:10079000AA8B639A07166398841663168516854597
:1007A0007145F53381454D45DD33B3E72401B3E7AA
:1007B000F900B367FA00B367FB0093F7F70F639A8A
:1007C000071663988A1663965B1785456D45C13396
:1007D000814549456D3BB3E74901B367FB0093F79A
:1007E000F70F639E0716639C8A16631A591763985E
:1007F000241763969B1685456945513B81454545C0
:100800007933B3E75401B367FA00B367FB0093F79A
:10081000F70F639C0716639A891663183917639656
:100820002B1785456545A533814541458D33B36714
:100830004901B367FB0093F7F70F639E0716639CAC
:100840008916639A3A176398541763969B168545E1
:100850006145353B814513051004153BB3E7240181
:10086000B3E7FA00B3E7F900B367FB0093F7F70FBC
:10087000639A071663188A1663964B178545130506
:10088000100231338145130500041133B3E73A01F7
:10089000B367FB0093F7F70F639A071663188A167E
:1008A000631649176394241763929B1685451305B5
:1008B0000002F139336C8B0181455D45137CFC0FDF
:1008C000F931631C0C16631A8A16639849176396EC
:1008D000341763949B1685455945553981455545CF
:1008E0007D3163120B1863108A18639E8916639C0E
:1008F0008A16631A89166398841663968B16854543
:100900005145713135BD814571455131B3E75401D0
:10091000B3E7F900B367FA00B367FB0093F7F70F8B
:10092000E39207E8E31089E8E39E2BE785454D4510
:10093000B93981456D45A139B3673901B367FA000B
:10094000B367FB0093F7F70FE39407E8E3928AE8B5
:10095000E39054E9E39E9BE6854549450D39814581
:1009600069453531B3E72401B3E7FA00B367FA000C
:10097000B367FB0093F7F70FE39207E8E39089E88A
:10098000E39E3BE785454545193181456545013184
:10099000B3E74A01B367FB0093F7F70FE39607E865
:1009A000E39489E8E31239E9E39024E9E39E9BE6C6
:1009B00085454145E93E81456145D13EB3E7440166
:1009C000B367FB0093F7F70FE39607E8E39489E832
:1009D000E3923AE9E31059E9E39E2BE785451305D5
:1009E00010047536B36C9B0181451305100293FC0E
:1009F000FC0F713EE3980CE8E3168AE8E39444E9BF
:100A0000E3929BE8854513050004513681451305A3
:100A10000002B53EB3E73401B367FB0093F7F70F6D
:100A2000E39A07E8E3188AE8E3964AE9E31459E908
:100A3000E3922BE985455D45993E81455945813EC7
:100A4000B3E72401B367FB0093F7F70FE39807E8D8
:100A5000E3168AE8E39489E8E3928AE8E3908BE876
:100A6000854555452D36814551451536E31A8BCCC4
:100A70000100F9B1B71702409843B706FFF04111E2
:100A80001367170098C3D84337060200758FD8C381
:100A90009843B706F7FEFD16758F98C39843B706BF
:100AA000FCFFFD16758F98C3D843B70601FFFD16EE
:100AB000758FD8C337079F0098C702C402C69843F2
:100AC000C166558F98C3B716024005679C42F18FE7
:100AD0003EC6A24785073EC4B24781E7A247E397D7
:100AE000E7FEB71702409C431397E70063570706DA
:100AF00085473EC632478547631FF704B717024054
:100B0000D843B706C1FFFD16D8C3D843D8C3D843CE
:100B100013670740D8C3D843758FD8C3D843B706E7
:100B20002900558FD8C39843B7060001558F98C345
:100B3000984393166700E3DD06FED843B7160240DC
:100B4000719BD8C3D84313672700D8C32147DC4221
:100B5000B18BE39EE7FE4101828002C661BF01A026
:100B600097010020938101CA174100201301814998
:100B7000170500001305850797F5FF1F9385854826
:100B80001386818063FAC5008322050023A05500E7
:100B900011059105E3EAC5FE138581809385818067
:100BA0006377B500232005001105E36DB5FEFD4216
:100BB000739002BC8D4273904280930280087390C0
:100BC000023097F2FFFF9382224493E23200739047
:100BD0005230EFF03FEA970200009382C2A973906F
:080BE000123473002030000004
:080BE800020000000000000003
:00000001FF
